{
  "_format": "hh-sol-artifact-1",
  "contractName": "PunkyNFT",
  "sourceName": "contracts/PunkyNFT.sol",
  "abi": [
    {
      "inputs": [],
      "stateMutability": "nonpayable",
      "type": "constructor"
    },
    {
      "inputs": [
        {
          "internalType": "address",
          "name": "sender",
          "type": "address"
        },
        {
          "internalType": "uint256",
          "name": "balance",
          "type": "uint256"
        },
        {
          "internalType": "uint256",
          "name": "needed",
          "type": "uint256"
        },
        {
          "internalType": "uint256",
          "name": "tokenId",
          "type": "uint256"
        }
      ],
      "name": "ERC1155InsufficientBalance",
      "type": "error"
    },
    {
      "inputs": [
        {
          "internalType": "address",
          "name": "approver",
          "type": "address"
        }
      ],
      "name": "ERC1155InvalidApprover",
      "type": "error"
    },
    {
      "inputs": [
        {
          "internalType": "uint256",
          "name": "idsLength",
          "type": "uint256"
        },
        {
          "internalType": "uint256",
          "name": "valuesLength",
          "type": "uint256"
        }
      ],
      "name": "ERC1155InvalidArrayLength",
      "type": "error"
    },
    {
      "inputs": [
        {
          "internalType": "address",
          "name": "operator",
          "type": "address"
        }
      ],
      "name": "ERC1155InvalidOperator",
      "type": "error"
    },
    {
      "inputs": [
        {
          "internalType": "address",
          "name": "receiver",
          "type": "address"
        }
      ],
      "name": "ERC1155InvalidReceiver",
      "type": "error"
    },
    {
      "inputs": [
        {
          "internalType": "address",
          "name": "sender",
          "type": "address"
        }
      ],
      "name": "ERC1155InvalidSender",
      "type": "error"
    },
    {
      "inputs": [
        {
          "internalType": "address",
          "name": "operator",
          "type": "address"
        },
        {
          "internalType": "address",
          "name": "owner",
          "type": "address"
        }
      ],
      "name": "ERC1155MissingApprovalForAll",
      "type": "error"
    },
    {
      "anonymous": false,
      "inputs": [
        {
          "indexed": true,
          "internalType": "address",
          "name": "account",
          "type": "address"
        },
        {
          "indexed": true,
          "internalType": "address",
          "name": "operator",
          "type": "address"
        },
        {
          "indexed": false,
          "internalType": "bool",
          "name": "approved",
          "type": "bool"
        }
      ],
      "name": "ApprovalForAll",
      "type": "event"
    },
    {
      "anonymous": false,
      "inputs": [
        {
          "indexed": true,
          "internalType": "address",
          "name": "operator",
          "type": "address"
        },
        {
          "indexed": true,
          "internalType": "address",
          "name": "from",
          "type": "address"
        },
        {
          "indexed": true,
          "internalType": "address",
          "name": "to",
          "type": "address"
        },
        {
          "indexed": false,
          "internalType": "uint256[]",
          "name": "ids",
          "type": "uint256[]"
        },
        {
          "indexed": false,
          "internalType": "uint256[]",
          "name": "values",
          "type": "uint256[]"
        }
      ],
      "name": "TransferBatch",
      "type": "event"
    },
    {
      "anonymous": false,
      "inputs": [
        {
          "indexed": true,
          "internalType": "address",
          "name": "operator",
          "type": "address"
        },
        {
          "indexed": true,
          "internalType": "address",
          "name": "from",
          "type": "address"
        },
        {
          "indexed": true,
          "internalType": "address",
          "name": "to",
          "type": "address"
        },
        {
          "indexed": false,
          "internalType": "uint256",
          "name": "id",
          "type": "uint256"
        },
        {
          "indexed": false,
          "internalType": "uint256",
          "name": "value",
          "type": "uint256"
        }
      ],
      "name": "TransferSingle",
      "type": "event"
    },
    {
      "anonymous": false,
      "inputs": [
        {
          "indexed": false,
          "internalType": "string",
          "name": "value",
          "type": "string"
        },
        {
          "indexed": true,
          "internalType": "uint256",
          "name": "id",
          "type": "uint256"
        }
      ],
      "name": "URI",
      "type": "event"
    },
    {
      "inputs": [],
      "name": "BodyBasin",
      "outputs": [
        {
          "internalType": "uint256",
          "name": "",
          "type": "uint256"
        }
      ],
      "stateMutability": "view",
      "type": "function"
    },
    {
      "inputs": [],
      "name": "HeadWhiteCap",
      "outputs": [
        {
          "internalType": "uint256",
          "name": "",
          "type": "uint256"
        }
      ],
      "stateMutability": "view",
      "type": "function"
    },
    {
      "inputs": [],
      "name": "NeckSparkLab",
      "outputs": [
        {
          "internalType": "uint256",
          "name": "",
          "type": "uint256"
        }
      ],
      "stateMutability": "view",
      "type": "function"
    },
    {
      "inputs": [],
      "name": "PunkyBase",
      "outputs": [
        {
          "internalType": "uint256",
          "name": "",
          "type": "uint256"
        }
      ],
      "stateMutability": "view",
      "type": "function"
    },
    {
      "inputs": [],
      "name": "TailZebra",
      "outputs": [
        {
          "internalType": "uint256",
          "name": "",
          "type": "uint256"
        }
      ],
      "stateMutability": "view",
      "type": "function"
    },
    {
      "inputs": [
        {
          "internalType": "address",
          "name": "from",
          "type": "address"
        },
        {
          "internalType": "uint256",
          "name": "id",
          "type": "uint256"
        }
      ],
      "name": "balanceOf",
      "outputs": [
        {
          "internalType": "uint256",
          "name": "",
          "type": "uint256"
        }
      ],
      "stateMutability": "view",
      "type": "function"
    },
    {
      "inputs": [
        {
          "internalType": "address[]",
          "name": "accounts",
          "type": "address[]"
        },
        {
          "internalType": "uint256[]",
          "name": "ids",
          "type": "uint256[]"
        }
      ],
      "name": "balanceOfBatch",
      "outputs": [
        {
          "internalType": "uint256[]",
          "name": "",
          "type": "uint256[]"
        }
      ],
      "stateMutability": "view",
      "type": "function"
    },
    {
      "inputs": [
        {
          "internalType": "uint256",
          "name": "id",
          "type": "uint256"
        }
      ],
      "name": "checkBalance",
      "outputs": [
        {
          "internalType": "uint256",
          "name": "",
          "type": "uint256"
        }
      ],
      "stateMutability": "view",
      "type": "function"
    },
    {
      "inputs": [
        {
          "internalType": "address",
          "name": "account",
          "type": "address"
        },
        {
          "internalType": "address",
          "name": "operator",
          "type": "address"
        }
      ],
      "name": "isApprovedForAll",
      "outputs": [
        {
          "internalType": "bool",
          "name": "",
          "type": "bool"
        }
      ],
      "stateMutability": "view",
      "type": "function"
    },
    {
      "inputs": [
        {
          "internalType": "uint256",
          "name": "id",
          "type": "uint256"
        }
      ],
      "name": "mintTrait",
      "outputs": [],
      "stateMutability": "nonpayable",
      "type": "function"
    },
    {
      "inputs": [],
      "name": "name",
      "outputs": [
        {
          "internalType": "string",
          "name": "",
          "type": "string"
        }
      ],
      "stateMutability": "view",
      "type": "function"
    },
    {
      "inputs": [
        {
          "internalType": "address",
          "name": "from",
          "type": "address"
        },
        {
          "internalType": "address",
          "name": "to",
          "type": "address"
        },
        {
          "internalType": "uint256[]",
          "name": "ids",
          "type": "uint256[]"
        },
        {
          "internalType": "uint256[]",
          "name": "values",
          "type": "uint256[]"
        },
        {
          "internalType": "bytes",
          "name": "data",
          "type": "bytes"
        }
      ],
      "name": "safeBatchTransferFrom",
      "outputs": [],
      "stateMutability": "nonpayable",
      "type": "function"
    },
    {
      "inputs": [
        {
          "internalType": "address",
          "name": "from",
          "type": "address"
        },
        {
          "internalType": "address",
          "name": "to",
          "type": "address"
        },
        {
          "internalType": "uint256",
          "name": "id",
          "type": "uint256"
        },
        {
          "internalType": "uint256",
          "name": "value",
          "type": "uint256"
        },
        {
          "internalType": "bytes",
          "name": "data",
          "type": "bytes"
        }
      ],
      "name": "safeTransferFrom",
      "outputs": [],
      "stateMutability": "nonpayable",
      "type": "function"
    },
    {
      "inputs": [
        {
          "internalType": "address",
          "name": "operator",
          "type": "address"
        },
        {
          "internalType": "bool",
          "name": "approved",
          "type": "bool"
        }
      ],
      "name": "setApprovalForAll",
      "outputs": [],
      "stateMutability": "nonpayable",
      "type": "function"
    },
    {
      "inputs": [
        {
          "internalType": "bytes4",
          "name": "interfaceId",
          "type": "bytes4"
        }
      ],
      "name": "supportsInterface",
      "outputs": [
        {
          "internalType": "bool",
          "name": "",
          "type": "bool"
        }
      ],
      "stateMutability": "view",
      "type": "function"
    },
    {
      "inputs": [],
      "name": "symbol",
      "outputs": [
        {
          "internalType": "string",
          "name": "",
          "type": "string"
        }
      ],
      "stateMutability": "view",
      "type": "function"
    },
    {
      "inputs": [
        {
          "internalType": "uint256",
          "name": "_tokenid",
          "type": "uint256"
        }
      ],
      "name": "uri",
      "outputs": [
        {
          "internalType": "string",
          "name": "",
          "type": "string"
        }
      ],
      "stateMutability": "pure",
      "type": "function"
    }
  ],
  "bytecode": "0x60806040526040518060400160405280600581526020017f50756e6b79000000000000000000000000000000000000000000000000000000815250600390816200004a919062000361565b506040518060400160405280600581526020017f50554e4b590000000000000000000000000000000000000000000000000000008152506004908162000091919062000361565b503480156200009f57600080fd5b506040518060a00160405280606a815260200162002a5e606a9139620000cb81620000d260201b60201c565b5062000448565b8060029081620000e3919062000361565b5050565b600081519050919050565b7f4e487b7100000000000000000000000000000000000000000000000000000000600052604160045260246000fd5b7f4e487b7100000000000000000000000000000000000000000000000000000000600052602260045260246000fd5b600060028204905060018216806200016957607f821691505b6020821081036200017f576200017e62000121565b5b50919050565b60008190508160005260206000209050919050565b60006020601f8301049050919050565b600082821b905092915050565b600060088302620001e97fffffffffffffffffffffffffffffffffffffffffffffffffffffffffffffffff82620001aa565b620001f58683620001aa565b95508019841693508086168417925050509392505050565b6000819050919050565b6000819050919050565b6000620002426200023c62000236846200020d565b62000217565b6200020d565b9050919050565b6000819050919050565b6200025e8362000221565b620002766200026d8262000249565b848454620001b7565b825550505050565b600090565b6200028d6200027e565b6200029a81848462000253565b505050565b5b81811015620002c257620002b660008262000283565b600181019050620002a0565b5050565b601f8211156200031157620002db8162000185565b620002e6846200019a565b81016020851015620002f6578190505b6200030e62000305856200019a565b8301826200029f565b50505b505050565b600082821c905092915050565b6000620003366000198460080262000316565b1980831691505092915050565b600062000351838362000323565b9150826002028217905092915050565b6200036c82620000e7565b67ffffffffffffffff811115620003885762000387620000f2565b5b62000394825462000150565b620003a1828285620002c6565b600060209050601f831160018114620003d95760008415620003c4578287015190505b620003d0858262000343565b86555062000440565b601f198416620003e98662000185565b60005b828110156200041357848901518255600182019150602085019450602081019050620003ec565b868310156200043357848901516200042f601f89168262000323565b8355505b6001600288020188555050505b505050505050565b61260680620004586000396000f3fe608060405234801561001057600080fd5b506004361061010a5760003560e01c80636aa098cb116100a2578063a22cb46511610071578063a22cb465146102cd578063a3f09554146102e9578063e985e9c514610307578063eb7dc70f14610337578063f242432a146103555761010a565b80636aa098cb146102455780637f2862861461026157806385b19bd81461029157806395d89b41146102af5761010a565b80630f4b2884116100de5780630f4b2884146101bd5780632eb2c2d6146101db5780634e1273f4146101f7578063620f598e146102275761010a565b8062fdd58e1461010f57806301ffc9a71461013f57806306fdde031461016f5780630e89341c1461018d575b600080fd5b610129600480360381019061012491906118bd565b610371565b604051610136919061190c565b60405180910390f35b6101596004803603810190610154919061197f565b610385565b60405161016691906119c7565b60405180910390f35b610177610467565b6040516101849190611a72565b60405180910390f35b6101a760048036038101906101a29190611a94565b6104f5565b6040516101b49190611a72565b60405180910390f35b6101c5610526565b6040516101d2919061190c565b60405180910390f35b6101f560048036038101906101f09190611cbe565b61052b565b005b610211600480360381019061020c9190611e50565b6105d3565b60405161021e9190611f86565b60405180910390f35b61022f6106dc565b60405161023c919061190c565b60405180910390f35b61025f600480360381019061025a9190611a94565b6106e1565b005b61027b60048036038101906102769190611a94565b610700565b604051610288919061190c565b60405180910390f35b610299610713565b6040516102a6919061190c565b60405180910390f35b6102b7610718565b6040516102c49190611a72565b60405180910390f35b6102e760048036038101906102e29190611fd4565b6107a6565b005b6102f16107bc565b6040516102fe919061190c565b60405180910390f35b610321600480360381019061031c9190612014565b6107c1565b60405161032e91906119c7565b60405180910390f35b61033f610855565b60405161034c919061190c565b60405180910390f35b61036f600480360381019061036a9190612054565b61085a565b005b600061037d8383610902565b905092915050565b60007fd9b67a26000000000000000000000000000000000000000000000000000000007bffffffffffffffffffffffffffffffffffffffffffffffffffffffff1916827bffffffffffffffffffffffffffffffffffffffffffffffffffffffff1916148061045057507f0e89341c000000000000000000000000000000000000000000000000000000007bffffffffffffffffffffffffffffffffffffffffffffffffffffffff1916827bffffffffffffffffffffffffffffffffffffffffffffffffffffffff1916145b80610460575061045f8261095c565b5b9050919050565b600380546104749061211a565b80601f01602080910402602001604051908101604052809291908181526020018280546104a09061211a565b80156104ed5780601f106104c2576101008083540402835291602001916104ed565b820191906000526020600020905b8154815290600101906020018083116104d057829003601f168201915b505050505081565b6060610500826109c6565b6040516020016105109190612291565b6040516020818303038152906040529050919050565b600081565b6000610535610a94565b90508073ffffffffffffffffffffffffffffffffffffffff168673ffffffffffffffffffffffffffffffffffffffff161415801561057a575061057886826107c1565b155b156105be5780866040517fe237d9220000000000000000000000000000000000000000000000000000000081526004016105b59291906122cd565b60405180910390fd5b6105cb8686868686610a9c565b505050505050565b6060815183511461061f57815183516040517f5b0599910000000000000000000000000000000000000000000000000000000081526004016106169291906122f6565b60405180910390fd5b6000835167ffffffffffffffff81111561063c5761063b611ac6565b5b60405190808252806020026020018201604052801561066a5781602001602082028036833780820191505090505b50905060005b84518110156106d1576106a761068f8287610b9490919063ffffffff16565b6106a28387610ba890919063ffffffff16565b610371565b8282815181106106ba576106b961231f565b5b602002602001018181525050806001019050610670565b508091505092915050565b600481565b6106fd3382600160405180602001604052806000815250610bbc565b50565b600061070c3383610902565b9050919050565b600281565b600480546107259061211a565b80601f01602080910402602001604051908101604052809291908181526020018280546107519061211a565b801561079e5780601f106107735761010080835404028352916020019161079e565b820191906000526020600020905b81548152906001019060200180831161078157829003601f168201915b505050505081565b6107b86107b1610a94565b8383610c55565b5050565b600181565b6000600160008473ffffffffffffffffffffffffffffffffffffffff1673ffffffffffffffffffffffffffffffffffffffff16815260200190815260200160002060008373ffffffffffffffffffffffffffffffffffffffff1673ffffffffffffffffffffffffffffffffffffffff16815260200190815260200160002060009054906101000a900460ff16905092915050565b600381565b6000610864610a94565b90508073ffffffffffffffffffffffffffffffffffffffff168673ffffffffffffffffffffffffffffffffffffffff16141580156108a957506108a786826107c1565b155b156108ed5780866040517fe237d9220000000000000000000000000000000000000000000000000000000081526004016108e49291906122cd565b60405180910390fd5b6108fa8686868686610dc5565b505050505050565b600080600083815260200190815260200160002060008473ffffffffffffffffffffffffffffffffffffffff1673ffffffffffffffffffffffffffffffffffffffff16815260200190815260200160002054905092915050565b60007f01ffc9a7000000000000000000000000000000000000000000000000000000007bffffffffffffffffffffffffffffffffffffffffffffffffffffffff1916827bffffffffffffffffffffffffffffffffffffffffffffffffffffffff1916149050919050565b6060600060016109d584610ed0565b01905060008167ffffffffffffffff8111156109f4576109f3611ac6565b5b6040519080825280601f01601f191660200182016040528015610a265781602001600182028036833780820191505090505b509050600082602001820190505b600115610a89578080600190039150507f3031323334353637383961626364656600000000000000000000000000000000600a86061a8153600a8581610a7d57610a7c61234e565b5b04945060008503610a34575b819350505050919050565b600033905090565b600073ffffffffffffffffffffffffffffffffffffffff168473ffffffffffffffffffffffffffffffffffffffff1603610b0e5760006040517f57f447ce000000000000000000000000000000000000000000000000000000008152600401610b05919061237d565b60405180910390fd5b600073ffffffffffffffffffffffffffffffffffffffff168573ffffffffffffffffffffffffffffffffffffffff1603610b805760006040517f01a83514000000000000000000000000000000000000000000000000000000008152600401610b77919061237d565b60405180910390fd5b610b8d8585858585611023565b5050505050565b600060208202602084010151905092915050565b600060208202602084010151905092915050565b600073ffffffffffffffffffffffffffffffffffffffff168473ffffffffffffffffffffffffffffffffffffffff1603610c2e5760006040517f57f447ce000000000000000000000000000000000000000000000000000000008152600401610c25919061237d565b60405180910390fd5b600080610c3b85856110d5565b91509150610c4d600087848487611023565b505050505050565b600073ffffffffffffffffffffffffffffffffffffffff168273ffffffffffffffffffffffffffffffffffffffff1603610cc75760006040517fced3e100000000000000000000000000000000000000000000000000000000008152600401610cbe919061237d565b60405180910390fd5b80600160008573ffffffffffffffffffffffffffffffffffffffff1673ffffffffffffffffffffffffffffffffffffffff16815260200190815260200160002060008473ffffffffffffffffffffffffffffffffffffffff1673ffffffffffffffffffffffffffffffffffffffff16815260200190815260200160002060006101000a81548160ff0219169083151502179055508173ffffffffffffffffffffffffffffffffffffffff168373ffffffffffffffffffffffffffffffffffffffff167f17307eab39ab6107e8899845ad3d59bd9653f200f220920489ca2b5937696c3183604051610db891906119c7565b60405180910390a3505050565b600073ffffffffffffffffffffffffffffffffffffffff168473ffffffffffffffffffffffffffffffffffffffff1603610e375760006040517f57f447ce000000000000000000000000000000000000000000000000000000008152600401610e2e919061237d565b60405180910390fd5b600073ffffffffffffffffffffffffffffffffffffffff168573ffffffffffffffffffffffffffffffffffffffff1603610ea95760006040517f01a83514000000000000000000000000000000000000000000000000000000008152600401610ea0919061237d565b60405180910390fd5b600080610eb685856110d5565b91509150610ec78787848487611023565b50505050505050565b600080600090507a184f03e93ff9f4daa797ed6e38ed64bf6a1f0100000000000000008310610f2e577a184f03e93ff9f4daa797ed6e38ed64bf6a1f0100000000000000008381610f2457610f2361234e565b5b0492506040810190505b6d04ee2d6d415b85acef81000000008310610f6b576d04ee2d6d415b85acef81000000008381610f6157610f6061234e565b5b0492506020810190505b662386f26fc100008310610f9a57662386f26fc100008381610f9057610f8f61234e565b5b0492506010810190505b6305f5e1008310610fc3576305f5e1008381610fb957610fb861234e565b5b0492506008810190505b6127108310610fe8576127108381610fde57610fdd61234e565b5b0492506004810190505b6064831061100b57606483816110015761100061234e565b5b0492506002810190505b600a831061101a576001810190505b80915050919050565b61102f85858585611105565b600073ffffffffffffffffffffffffffffffffffffffff168473ffffffffffffffffffffffffffffffffffffffff16146110ce57600061106d610a94565b905060018451036110bd57600061108e600086610ba890919063ffffffff16565b905060006110a6600086610ba890919063ffffffff16565b90506110b68389898585896114ad565b50506110cc565b6110cb818787878787611661565b5b505b5050505050565b60608060405191506001825283602083015260408201905060018152826020820152604081016040529250929050565b805182511461114f57815181516040517f5b0599910000000000000000000000000000000000000000000000000000000081526004016111469291906122f6565b60405180910390fd5b6000611159610a94565b905060005b835181101561136857600061117c8286610ba890919063ffffffff16565b905060006111938386610ba890919063ffffffff16565b9050600073ffffffffffffffffffffffffffffffffffffffff168873ffffffffffffffffffffffffffffffffffffffff16146112c057600080600084815260200190815260200160002060008a73ffffffffffffffffffffffffffffffffffffffff1673ffffffffffffffffffffffffffffffffffffffff1681526020019081526020016000205490508181101561126857888183856040517f03dee4c500000000000000000000000000000000000000000000000000000000815260040161125f9493929190612398565b60405180910390fd5b81810360008085815260200190815260200160002060008b73ffffffffffffffffffffffffffffffffffffffff1673ffffffffffffffffffffffffffffffffffffffff16815260200190815260200160002081905550505b600073ffffffffffffffffffffffffffffffffffffffff168773ffffffffffffffffffffffffffffffffffffffff161461135b578060008084815260200190815260200160002060008973ffffffffffffffffffffffffffffffffffffffff1673ffffffffffffffffffffffffffffffffffffffff1681526020019081526020016000206000828254611353919061240c565b925050819055505b505080600101905061115e565b506001835103611427576000611388600085610ba890919063ffffffff16565b905060006113a0600085610ba890919063ffffffff16565b90508573ffffffffffffffffffffffffffffffffffffffff168773ffffffffffffffffffffffffffffffffffffffff168473ffffffffffffffffffffffffffffffffffffffff167fc3d58168c5ae7397731d063d5bbf3d657854427343f4c083240f7aacaa2d0f6285856040516114189291906122f6565b60405180910390a450506114a6565b8373ffffffffffffffffffffffffffffffffffffffff168573ffffffffffffffffffffffffffffffffffffffff168273ffffffffffffffffffffffffffffffffffffffff167f4a39dc06d4c0dbc64b70af90fd698a233a518aa5d07e595d983b8c0526c8f7fb868660405161149d929190612440565b60405180910390a45b5050505050565b60008473ffffffffffffffffffffffffffffffffffffffff163b1115611659578373ffffffffffffffffffffffffffffffffffffffff1663f23a6e6187878686866040518663ffffffff1660e01b815260040161150e9594939291906124cc565b6020604051808303816000875af192505050801561154a57506040513d601f19601f82011682018060405250810190611547919061253b565b60015b6115ce573d806000811461157a576040519150601f19603f3d011682016040523d82523d6000602084013e61157f565b606091505b5060008151036115c657846040517f57f447ce0000000000000000000000000000000000000000000000000000000081526004016115bd919061237d565b60405180910390fd5b805181602001fd5b63f23a6e6160e01b7bffffffffffffffffffffffffffffffffffffffffffffffffffffffff1916817bffffffffffffffffffffffffffffffffffffffffffffffffffffffff19161461165757846040517f57f447ce00000000000000000000000000000000000000000000000000000000815260040161164e919061237d565b60405180910390fd5b505b505050505050565b60008473ffffffffffffffffffffffffffffffffffffffff163b111561180d578373ffffffffffffffffffffffffffffffffffffffff1663bc197c8187878686866040518663ffffffff1660e01b81526004016116c2959493929190612568565b6020604051808303816000875af19250505080156116fe57506040513d601f19601f820116820180604052508101906116fb919061253b565b60015b611782573d806000811461172e576040519150601f19603f3d011682016040523d82523d6000602084013e611733565b606091505b50600081510361177a57846040517f57f447ce000000000000000000000000000000000000000000000000000000008152600401611771919061237d565b60405180910390fd5b805181602001fd5b63bc197c8160e01b7bffffffffffffffffffffffffffffffffffffffffffffffffffffffff1916817bffffffffffffffffffffffffffffffffffffffffffffffffffffffff19161461180b57846040517f57f447ce000000000000000000000000000000000000000000000000000000008152600401611802919061237d565b60405180910390fd5b505b505050505050565b6000604051905090565b600080fd5b600080fd5b600073ffffffffffffffffffffffffffffffffffffffff82169050919050565b600061185482611829565b9050919050565b61186481611849565b811461186f57600080fd5b50565b6000813590506118818161185b565b92915050565b6000819050919050565b61189a81611887565b81146118a557600080fd5b50565b6000813590506118b781611891565b92915050565b600080604083850312156118d4576118d361181f565b5b60006118e285828601611872565b92505060206118f3858286016118a8565b9150509250929050565b61190681611887565b82525050565b600060208201905061192160008301846118fd565b92915050565b60007fffffffff0000000000000000000000000000000000000000000000000000000082169050919050565b61195c81611927565b811461196757600080fd5b50565b60008135905061197981611953565b92915050565b6000602082840312156119955761199461181f565b5b60006119a38482850161196a565b91505092915050565b60008115159050919050565b6119c1816119ac565b82525050565b60006020820190506119dc60008301846119b8565b92915050565b600081519050919050565b600082825260208201905092915050565b60005b83811015611a1c578082015181840152602081019050611a01565b60008484015250505050565b6000601f19601f8301169050919050565b6000611a44826119e2565b611a4e81856119ed565b9350611a5e8185602086016119fe565b611a6781611a28565b840191505092915050565b60006020820190508181036000830152611a8c8184611a39565b905092915050565b600060208284031215611aaa57611aa961181f565b5b6000611ab8848285016118a8565b91505092915050565b600080fd5b7f4e487b7100000000000000000000000000000000000000000000000000000000600052604160045260246000fd5b611afe82611a28565b810181811067ffffffffffffffff82111715611b1d57611b1c611ac6565b5b80604052505050565b6000611b30611815565b9050611b3c8282611af5565b919050565b600067ffffffffffffffff821115611b5c57611b5b611ac6565b5b602082029050602081019050919050565b600080fd5b6000611b85611b8084611b41565b611b26565b90508083825260208201905060208402830185811115611ba857611ba7611b6d565b5b835b81811015611bd15780611bbd88826118a8565b845260208401935050602081019050611baa565b5050509392505050565b600082601f830112611bf057611bef611ac1565b5b8135611c00848260208601611b72565b91505092915050565b600080fd5b600067ffffffffffffffff821115611c2957611c28611ac6565b5b611c3282611a28565b9050602081019050919050565b82818337600083830152505050565b6000611c61611c5c84611c0e565b611b26565b905082815260208101848484011115611c7d57611c7c611c09565b5b611c88848285611c3f565b509392505050565b600082601f830112611ca557611ca4611ac1565b5b8135611cb5848260208601611c4e565b91505092915050565b600080600080600060a08688031215611cda57611cd961181f565b5b6000611ce888828901611872565b9550506020611cf988828901611872565b945050604086013567ffffffffffffffff811115611d1a57611d19611824565b5b611d2688828901611bdb565b935050606086013567ffffffffffffffff811115611d4757611d46611824565b5b611d5388828901611bdb565b925050608086013567ffffffffffffffff811115611d7457611d73611824565b5b611d8088828901611c90565b9150509295509295909350565b600067ffffffffffffffff821115611da857611da7611ac6565b5b602082029050602081019050919050565b6000611dcc611dc784611d8d565b611b26565b90508083825260208201905060208402830185811115611def57611dee611b6d565b5b835b81811015611e185780611e048882611872565b845260208401935050602081019050611df1565b5050509392505050565b600082601f830112611e3757611e36611ac1565b5b8135611e47848260208601611db9565b91505092915050565b60008060408385031215611e6757611e6661181f565b5b600083013567ffffffffffffffff811115611e8557611e84611824565b5b611e9185828601611e22565b925050602083013567ffffffffffffffff811115611eb257611eb1611824565b5b611ebe85828601611bdb565b9150509250929050565b600081519050919050565b600082825260208201905092915050565b6000819050602082019050919050565b611efd81611887565b82525050565b6000611f0f8383611ef4565b60208301905092915050565b6000602082019050919050565b6000611f3382611ec8565b611f3d8185611ed3565b9350611f4883611ee4565b8060005b83811015611f79578151611f608882611f03565b9750611f6b83611f1b565b925050600181019050611f4c565b5085935050505092915050565b60006020820190508181036000830152611fa08184611f28565b905092915050565b611fb1816119ac565b8114611fbc57600080fd5b50565b600081359050611fce81611fa8565b92915050565b60008060408385031215611feb57611fea61181f565b5b6000611ff985828601611872565b925050602061200a85828601611fbf565b9150509250929050565b6000806040838503121561202b5761202a61181f565b5b600061203985828601611872565b925050602061204a85828601611872565b9150509250929050565b600080600080600060a086880312156120705761206f61181f565b5b600061207e88828901611872565b955050602061208f88828901611872565b94505060406120a0888289016118a8565b93505060606120b1888289016118a8565b925050608086013567ffffffffffffffff8111156120d2576120d1611824565b5b6120de88828901611c90565b9150509295509295909350565b7f4e487b7100000000000000000000000000000000000000000000000000000000600052602260045260246000fd5b6000600282049050600182168061213257607f821691505b602082108103612145576121446120eb565b5b50919050565b600081905092915050565b7f68747470733a2f2f6379616e2d61637574652d707974686f6e2d3533332e6d7960008201527f70696e6174612e636c6f75642f697066732f516d4e655178797448613542665360208201527f58414e556e4a33465747684b72795465386d7852654c466870796e394851714560408201527f2f00000000000000000000000000000000000000000000000000000000000000606082015250565b60006121fe60618361214b565b915061220982612156565b606182019050919050565b600061221f826119e2565b612229818561214b565b93506122398185602086016119fe565b80840191505092915050565b7f2e6a736f6e000000000000000000000000000000000000000000000000000000600082015250565b600061227b60058361214b565b915061228682612245565b600582019050919050565b600061229c826121f1565b91506122a88284612214565b91506122b38261226e565b915081905092915050565b6122c781611849565b82525050565b60006040820190506122e260008301856122be565b6122ef60208301846122be565b9392505050565b600060408201905061230b60008301856118fd565b61231860208301846118fd565b9392505050565b7f4e487b7100000000000000000000000000000000000000000000000000000000600052603260045260246000fd5b7f4e487b7100000000000000000000000000000000000000000000000000000000600052601260045260246000fd5b600060208201905061239260008301846122be565b92915050565b60006080820190506123ad60008301876122be565b6123ba60208301866118fd565b6123c760408301856118fd565b6123d460608301846118fd565b95945050505050565b7f4e487b7100000000000000000000000000000000000000000000000000000000600052601160045260246000fd5b600061241782611887565b915061242283611887565b925082820190508082111561243a576124396123dd565b5b92915050565b6000604082019050818103600083015261245a8185611f28565b9050818103602083015261246e8184611f28565b90509392505050565b600081519050919050565b600082825260208201905092915050565b600061249e82612477565b6124a88185612482565b93506124b88185602086016119fe565b6124c181611a28565b840191505092915050565b600060a0820190506124e160008301886122be565b6124ee60208301876122be565b6124fb60408301866118fd565b61250860608301856118fd565b818103608083015261251a8184612493565b90509695505050505050565b60008151905061253581611953565b92915050565b6000602082840312156125515761255061181f565b5b600061255f84828501612526565b91505092915050565b600060a08201905061257d60008301886122be565b61258a60208301876122be565b818103604083015261259c8186611f28565b905081810360608301526125b08185611f28565b905081810360808301526125c48184612493565b9050969550505050505056fea264697066735822122082e99b28110041d55d33d49f5077deacc1405819b93072f620c8509fb8c341f164736f6c6343000818003368747470733a2f2f6379616e2d61637574652d707974686f6e2d3533332e6d7970696e6174612e636c6f75642f697066732f516d4e655178797448613542665358414e556e4a33465747684b72795465386d7852654c466870796e39485171452f7b69647d2e6a736f6e",
  "linkReferences": {},
  "deployedLinkReferences": {}
}