{
  "_format": "hh-sol-artifact-1",
  "contractName": "PunkyNFT",
  "sourceName": "contracts/PunkyNFT.sol",
  "abi": [
    {
      "inputs": [],
      "stateMutability": "nonpayable",
      "type": "constructor"
    },
    {
      "inputs": [
        {
          "internalType": "address",
          "name": "sender",
          "type": "address"
        },
        {
          "internalType": "uint256",
          "name": "balance",
          "type": "uint256"
        },
        {
          "internalType": "uint256",
          "name": "needed",
          "type": "uint256"
        },
        {
          "internalType": "uint256",
          "name": "tokenId",
          "type": "uint256"
        }
      ],
      "name": "ERC1155InsufficientBalance",
      "type": "error"
    },
    {
      "inputs": [
        {
          "internalType": "address",
          "name": "approver",
          "type": "address"
        }
      ],
      "name": "ERC1155InvalidApprover",
      "type": "error"
    },
    {
      "inputs": [
        {
          "internalType": "uint256",
          "name": "idsLength",
          "type": "uint256"
        },
        {
          "internalType": "uint256",
          "name": "valuesLength",
          "type": "uint256"
        }
      ],
      "name": "ERC1155InvalidArrayLength",
      "type": "error"
    },
    {
      "inputs": [
        {
          "internalType": "address",
          "name": "operator",
          "type": "address"
        }
      ],
      "name": "ERC1155InvalidOperator",
      "type": "error"
    },
    {
      "inputs": [
        {
          "internalType": "address",
          "name": "receiver",
          "type": "address"
        }
      ],
      "name": "ERC1155InvalidReceiver",
      "type": "error"
    },
    {
      "inputs": [
        {
          "internalType": "address",
          "name": "sender",
          "type": "address"
        }
      ],
      "name": "ERC1155InvalidSender",
      "type": "error"
    },
    {
      "inputs": [
        {
          "internalType": "address",
          "name": "operator",
          "type": "address"
        },
        {
          "internalType": "address",
          "name": "owner",
          "type": "address"
        }
      ],
      "name": "ERC1155MissingApprovalForAll",
      "type": "error"
    },
    {
      "anonymous": false,
      "inputs": [
        {
          "indexed": true,
          "internalType": "address",
          "name": "account",
          "type": "address"
        },
        {
          "indexed": true,
          "internalType": "address",
          "name": "operator",
          "type": "address"
        },
        {
          "indexed": false,
          "internalType": "bool",
          "name": "approved",
          "type": "bool"
        }
      ],
      "name": "ApprovalForAll",
      "type": "event"
    },
    {
      "anonymous": false,
      "inputs": [
        {
          "indexed": true,
          "internalType": "address",
          "name": "operator",
          "type": "address"
        },
        {
          "indexed": true,
          "internalType": "address",
          "name": "from",
          "type": "address"
        },
        {
          "indexed": true,
          "internalType": "address",
          "name": "to",
          "type": "address"
        },
        {
          "indexed": false,
          "internalType": "uint256[]",
          "name": "ids",
          "type": "uint256[]"
        },
        {
          "indexed": false,
          "internalType": "uint256[]",
          "name": "values",
          "type": "uint256[]"
        }
      ],
      "name": "TransferBatch",
      "type": "event"
    },
    {
      "anonymous": false,
      "inputs": [
        {
          "indexed": true,
          "internalType": "address",
          "name": "operator",
          "type": "address"
        },
        {
          "indexed": true,
          "internalType": "address",
          "name": "from",
          "type": "address"
        },
        {
          "indexed": true,
          "internalType": "address",
          "name": "to",
          "type": "address"
        },
        {
          "indexed": false,
          "internalType": "uint256",
          "name": "id",
          "type": "uint256"
        },
        {
          "indexed": false,
          "internalType": "uint256",
          "name": "value",
          "type": "uint256"
        }
      ],
      "name": "TransferSingle",
      "type": "event"
    },
    {
      "anonymous": false,
      "inputs": [
        {
          "indexed": false,
          "internalType": "string",
          "name": "value",
          "type": "string"
        },
        {
          "indexed": true,
          "internalType": "uint256",
          "name": "id",
          "type": "uint256"
        }
      ],
      "name": "URI",
      "type": "event"
    },
    {
      "inputs": [],
      "name": "BodyBasin",
      "outputs": [
        {
          "internalType": "uint256",
          "name": "",
          "type": "uint256"
        }
      ],
      "stateMutability": "view",
      "type": "function"
    },
    {
      "inputs": [],
      "name": "HeadWhiteCap",
      "outputs": [
        {
          "internalType": "uint256",
          "name": "",
          "type": "uint256"
        }
      ],
      "stateMutability": "view",
      "type": "function"
    },
    {
      "inputs": [],
      "name": "NeckSparkLab",
      "outputs": [
        {
          "internalType": "uint256",
          "name": "",
          "type": "uint256"
        }
      ],
      "stateMutability": "view",
      "type": "function"
    },
    {
      "inputs": [],
      "name": "PunkyBase",
      "outputs": [
        {
          "internalType": "uint256",
          "name": "",
          "type": "uint256"
        }
      ],
      "stateMutability": "view",
      "type": "function"
    },
    {
      "inputs": [],
      "name": "TailZebra",
      "outputs": [
        {
          "internalType": "uint256",
          "name": "",
          "type": "uint256"
        }
      ],
      "stateMutability": "view",
      "type": "function"
    },
    {
      "inputs": [
        {
          "internalType": "address",
          "name": "from",
          "type": "address"
        },
        {
          "internalType": "uint256",
          "name": "id",
          "type": "uint256"
        }
      ],
      "name": "balanceOf",
      "outputs": [
        {
          "internalType": "uint256",
          "name": "",
          "type": "uint256"
        }
      ],
      "stateMutability": "view",
      "type": "function"
    },
    {
      "inputs": [
        {
          "internalType": "address[]",
          "name": "accounts",
          "type": "address[]"
        },
        {
          "internalType": "uint256[]",
          "name": "ids",
          "type": "uint256[]"
        }
      ],
      "name": "balanceOfBatch",
      "outputs": [
        {
          "internalType": "uint256[]",
          "name": "",
          "type": "uint256[]"
        }
      ],
      "stateMutability": "view",
      "type": "function"
    },
    {
      "inputs": [
        {
          "internalType": "uint256",
          "name": "id",
          "type": "uint256"
        }
      ],
      "name": "checkBalance",
      "outputs": [
        {
          "internalType": "uint256",
          "name": "",
          "type": "uint256"
        }
      ],
      "stateMutability": "view",
      "type": "function"
    },
    {
      "inputs": [
        {
          "internalType": "uint256",
          "name": "id",
          "type": "uint256"
        }
      ],
      "name": "equip",
      "outputs": [],
      "stateMutability": "nonpayable",
      "type": "function"
    },
    {
      "inputs": [
        {
          "internalType": "address",
          "name": "account",
          "type": "address"
        },
        {
          "internalType": "address",
          "name": "operator",
          "type": "address"
        }
      ],
      "name": "isApprovedForAll",
      "outputs": [
        {
          "internalType": "bool",
          "name": "",
          "type": "bool"
        }
      ],
      "stateMutability": "view",
      "type": "function"
    },
    {
      "inputs": [
        {
          "internalType": "uint256",
          "name": "id",
          "type": "uint256"
        }
      ],
      "name": "mintTrait",
      "outputs": [],
      "stateMutability": "nonpayable",
      "type": "function"
    },
    {
      "inputs": [],
      "name": "name",
      "outputs": [
        {
          "internalType": "string",
          "name": "",
          "type": "string"
        }
      ],
      "stateMutability": "view",
      "type": "function"
    },
    {
      "inputs": [
        {
          "internalType": "address",
          "name": "from",
          "type": "address"
        },
        {
          "internalType": "address",
          "name": "to",
          "type": "address"
        },
        {
          "internalType": "uint256[]",
          "name": "ids",
          "type": "uint256[]"
        },
        {
          "internalType": "uint256[]",
          "name": "values",
          "type": "uint256[]"
        },
        {
          "internalType": "bytes",
          "name": "data",
          "type": "bytes"
        }
      ],
      "name": "safeBatchTransferFrom",
      "outputs": [],
      "stateMutability": "nonpayable",
      "type": "function"
    },
    {
      "inputs": [
        {
          "internalType": "address",
          "name": "from",
          "type": "address"
        },
        {
          "internalType": "address",
          "name": "to",
          "type": "address"
        },
        {
          "internalType": "uint256",
          "name": "id",
          "type": "uint256"
        },
        {
          "internalType": "uint256",
          "name": "value",
          "type": "uint256"
        },
        {
          "internalType": "bytes",
          "name": "data",
          "type": "bytes"
        }
      ],
      "name": "safeTransferFrom",
      "outputs": [],
      "stateMutability": "nonpayable",
      "type": "function"
    },
    {
      "inputs": [
        {
          "internalType": "address",
          "name": "operator",
          "type": "address"
        },
        {
          "internalType": "bool",
          "name": "approved",
          "type": "bool"
        }
      ],
      "name": "setApprovalForAll",
      "outputs": [],
      "stateMutability": "nonpayable",
      "type": "function"
    },
    {
      "inputs": [
        {
          "internalType": "bytes4",
          "name": "interfaceId",
          "type": "bytes4"
        }
      ],
      "name": "supportsInterface",
      "outputs": [
        {
          "internalType": "bool",
          "name": "",
          "type": "bool"
        }
      ],
      "stateMutability": "view",
      "type": "function"
    },
    {
      "inputs": [],
      "name": "symbol",
      "outputs": [
        {
          "internalType": "string",
          "name": "",
          "type": "string"
        }
      ],
      "stateMutability": "view",
      "type": "function"
    },
    {
      "inputs": [
        {
          "internalType": "uint256",
          "name": "_tokenid",
          "type": "uint256"
        }
      ],
      "name": "uri",
      "outputs": [
        {
          "internalType": "string",
          "name": "",
          "type": "string"
        }
      ],
      "stateMutability": "pure",
      "type": "function"
    }
  ],
  "bytecode": "0x60806040526040518060400160405280600581526020017f50756e6b79000000000000000000000000000000000000000000000000000000815250600390816200004a919062000366565b506040518060400160405280600581526020017f50554e4b590000000000000000000000000000000000000000000000000000008152506004908162000091919062000366565b506000600555348015620000a457600080fd5b506040518060a00160405280606a815260200162002a94606a9139620000d081620000d760201b60201c565b506200044d565b8060029081620000e8919062000366565b5050565b600081519050919050565b7f4e487b7100000000000000000000000000000000000000000000000000000000600052604160045260246000fd5b7f4e487b7100000000000000000000000000000000000000000000000000000000600052602260045260246000fd5b600060028204905060018216806200016e57607f821691505b60208210810362000184576200018362000126565b5b50919050565b60008190508160005260206000209050919050565b60006020601f8301049050919050565b600082821b905092915050565b600060088302620001ee7fffffffffffffffffffffffffffffffffffffffffffffffffffffffffffffffff82620001af565b620001fa8683620001af565b95508019841693508086168417925050509392505050565b6000819050919050565b6000819050919050565b600062000247620002416200023b8462000212565b6200021c565b62000212565b9050919050565b6000819050919050565b620002638362000226565b6200027b62000272826200024e565b848454620001bc565b825550505050565b600090565b6200029262000283565b6200029f81848462000258565b505050565b5b81811015620002c757620002bb60008262000288565b600181019050620002a5565b5050565b601f8211156200031657620002e0816200018a565b620002eb846200019f565b81016020851015620002fb578190505b620003136200030a856200019f565b830182620002a4565b50505b505050565b600082821c905092915050565b60006200033b600019846008026200031b565b1980831691505092915050565b600062000356838362000328565b9150826002028217905092915050565b6200037182620000ec565b67ffffffffffffffff8111156200038d576200038c620000f7565b5b62000399825462000155565b620003a6828285620002cb565b600060209050601f831160018114620003de5760008415620003c9578287015190505b620003d5858262000348565b86555062000445565b601f198416620003ee866200018a565b60005b828110156200041857848901518255600182019150602085019450602081019050620003f1565b8683101562000438578489015162000434601f89168262000328565b8355505b6001600288020188555050505b505050505050565b612637806200045d6000396000f3fe608060405234801561001057600080fd5b50600436106101155760003560e01c80637f286286116100a2578063a3f0955411610071578063a3f09554146102f4578063b85f802714610312578063e985e9c51461032e578063eb7dc70f1461035e578063f242432a1461037c57610115565b80637f2862861461026c57806385b19bd81461029c57806395d89b41146102ba578063a22cb465146102d857610115565b80630f4b2884116100e95780630f4b2884146101c85780632eb2c2d6146101e65780634e1273f414610202578063620f598e146102325780636aa098cb1461025057610115565b8062fdd58e1461011a57806301ffc9a71461014a57806306fdde031461017a5780630e89341c14610198575b600080fd5b610134600480360381019061012f91906118ee565b610398565b604051610141919061193d565b60405180910390f35b610164600480360381019061015f91906119b0565b6103ac565b60405161017191906119f8565b60405180910390f35b61018261048e565b60405161018f9190611aa3565b60405180910390f35b6101b260048036038101906101ad9190611ac5565b61051c565b6040516101bf9190611aa3565b60405180910390f35b6101d061054d565b6040516101dd919061193d565b60405180910390f35b61020060048036038101906101fb9190611cef565b610552565b005b61021c60048036038101906102179190611e81565b6105fa565b6040516102299190611fb7565b60405180910390f35b61023a610703565b604051610247919061193d565b60405180910390f35b61026a60048036038101906102659190611ac5565b610708565b005b61028660048036038101906102819190611ac5565b610727565b604051610293919061193d565b60405180910390f35b6102a461073a565b6040516102b1919061193d565b60405180910390f35b6102c261073f565b6040516102cf9190611aa3565b60405180910390f35b6102f260048036038101906102ed9190612005565b6107cd565b005b6102fc6107e3565b604051610309919061193d565b60405180910390f35b61032c60048036038101906103279190611ac5565b6107e8565b005b61034860048036038101906103439190612045565b6107f2565b60405161035591906119f8565b60405180910390f35b610366610886565b604051610373919061193d565b60405180910390f35b61039660048036038101906103919190612085565b61088b565b005b60006103a48383610933565b905092915050565b60007fd9b67a26000000000000000000000000000000000000000000000000000000007bffffffffffffffffffffffffffffffffffffffffffffffffffffffff1916827bffffffffffffffffffffffffffffffffffffffffffffffffffffffff1916148061047757507f0e89341c000000000000000000000000000000000000000000000000000000007bffffffffffffffffffffffffffffffffffffffffffffffffffffffff1916827bffffffffffffffffffffffffffffffffffffffffffffffffffffffff1916145b8061048757506104868261098d565b5b9050919050565b6003805461049b9061214b565b80601f01602080910402602001604051908101604052809291908181526020018280546104c79061214b565b80156105145780601f106104e957610100808354040283529160200191610514565b820191906000526020600020905b8154815290600101906020018083116104f757829003601f168201915b505050505081565b6060610527826109f7565b60405160200161053791906122c2565b6040516020818303038152906040529050919050565b600081565b600061055c610ac5565b90508073ffffffffffffffffffffffffffffffffffffffff168673ffffffffffffffffffffffffffffffffffffffff16141580156105a1575061059f86826107f2565b155b156105e55780866040517fe237d9220000000000000000000000000000000000000000000000000000000081526004016105dc9291906122fe565b60405180910390fd5b6105f28686868686610acd565b505050505050565b6060815183511461064657815183516040517f5b05999100000000000000000000000000000000000000000000000000000000815260040161063d929190612327565b60405180910390fd5b6000835167ffffffffffffffff81111561066357610662611af7565b5b6040519080825280602002602001820160405280156106915781602001602082028036833780820191505090505b50905060005b84518110156106f8576106ce6106b68287610bc590919063ffffffff16565b6106c98387610bd990919063ffffffff16565b610398565b8282815181106106e1576106e0612350565b5b602002602001018181525050806001019050610697565b508091505092915050565b600481565b6107243382600160405180602001604052806000815250610bed565b50565b60006107333383610933565b9050919050565b600281565b6004805461074c9061214b565b80601f01602080910402602001604051908101604052809291908181526020018280546107789061214b565b80156107c55780601f1061079a576101008083540402835291602001916107c5565b820191906000526020600020905b8154815290600101906020018083116107a857829003601f168201915b505050505081565b6107df6107d8610ac5565b8383610c86565b5050565b600181565b8060058190555050565b6000600160008473ffffffffffffffffffffffffffffffffffffffff1673ffffffffffffffffffffffffffffffffffffffff16815260200190815260200160002060008373ffffffffffffffffffffffffffffffffffffffff1673ffffffffffffffffffffffffffffffffffffffff16815260200190815260200160002060009054906101000a900460ff16905092915050565b600381565b6000610895610ac5565b90508073ffffffffffffffffffffffffffffffffffffffff168673ffffffffffffffffffffffffffffffffffffffff16141580156108da57506108d886826107f2565b155b1561091e5780866040517fe237d9220000000000000000000000000000000000000000000000000000000081526004016109159291906122fe565b60405180910390fd5b61092b8686868686610df6565b505050505050565b600080600083815260200190815260200160002060008473ffffffffffffffffffffffffffffffffffffffff1673ffffffffffffffffffffffffffffffffffffffff16815260200190815260200160002054905092915050565b60007f01ffc9a7000000000000000000000000000000000000000000000000000000007bffffffffffffffffffffffffffffffffffffffffffffffffffffffff1916827bffffffffffffffffffffffffffffffffffffffffffffffffffffffff1916149050919050565b606060006001610a0684610f01565b01905060008167ffffffffffffffff811115610a2557610a24611af7565b5b6040519080825280601f01601f191660200182016040528015610a575781602001600182028036833780820191505090505b509050600082602001820190505b600115610aba578080600190039150507f3031323334353637383961626364656600000000000000000000000000000000600a86061a8153600a8581610aae57610aad61237f565b5b04945060008503610a65575b819350505050919050565b600033905090565b600073ffffffffffffffffffffffffffffffffffffffff168473ffffffffffffffffffffffffffffffffffffffff1603610b3f5760006040517f57f447ce000000000000000000000000000000000000000000000000000000008152600401610b3691906123ae565b60405180910390fd5b600073ffffffffffffffffffffffffffffffffffffffff168573ffffffffffffffffffffffffffffffffffffffff1603610bb15760006040517f01a83514000000000000000000000000000000000000000000000000000000008152600401610ba891906123ae565b60405180910390fd5b610bbe8585858585611054565b5050505050565b600060208202602084010151905092915050565b600060208202602084010151905092915050565b600073ffffffffffffffffffffffffffffffffffffffff168473ffffffffffffffffffffffffffffffffffffffff1603610c5f5760006040517f57f447ce000000000000000000000000000000000000000000000000000000008152600401610c5691906123ae565b60405180910390fd5b600080610c6c8585611106565b91509150610c7e600087848487611054565b505050505050565b600073ffffffffffffffffffffffffffffffffffffffff168273ffffffffffffffffffffffffffffffffffffffff1603610cf85760006040517fced3e100000000000000000000000000000000000000000000000000000000008152600401610cef91906123ae565b60405180910390fd5b80600160008573ffffffffffffffffffffffffffffffffffffffff1673ffffffffffffffffffffffffffffffffffffffff16815260200190815260200160002060008473ffffffffffffffffffffffffffffffffffffffff1673ffffffffffffffffffffffffffffffffffffffff16815260200190815260200160002060006101000a81548160ff0219169083151502179055508173ffffffffffffffffffffffffffffffffffffffff168373ffffffffffffffffffffffffffffffffffffffff167f17307eab39ab6107e8899845ad3d59bd9653f200f220920489ca2b5937696c3183604051610de991906119f8565b60405180910390a3505050565b600073ffffffffffffffffffffffffffffffffffffffff168473ffffffffffffffffffffffffffffffffffffffff1603610e685760006040517f57f447ce000000000000000000000000000000000000000000000000000000008152600401610e5f91906123ae565b60405180910390fd5b600073ffffffffffffffffffffffffffffffffffffffff168573ffffffffffffffffffffffffffffffffffffffff1603610eda5760006040517f01a83514000000000000000000000000000000000000000000000000000000008152600401610ed191906123ae565b60405180910390fd5b600080610ee78585611106565b91509150610ef88787848487611054565b50505050505050565b600080600090507a184f03e93ff9f4daa797ed6e38ed64bf6a1f0100000000000000008310610f5f577a184f03e93ff9f4daa797ed6e38ed64bf6a1f0100000000000000008381610f5557610f5461237f565b5b0492506040810190505b6d04ee2d6d415b85acef81000000008310610f9c576d04ee2d6d415b85acef81000000008381610f9257610f9161237f565b5b0492506020810190505b662386f26fc100008310610fcb57662386f26fc100008381610fc157610fc061237f565b5b0492506010810190505b6305f5e1008310610ff4576305f5e1008381610fea57610fe961237f565b5b0492506008810190505b612710831061101957612710838161100f5761100e61237f565b5b0492506004810190505b6064831061103c57606483816110325761103161237f565b5b0492506002810190505b600a831061104b576001810190505b80915050919050565b61106085858585611136565b600073ffffffffffffffffffffffffffffffffffffffff168473ffffffffffffffffffffffffffffffffffffffff16146110ff57600061109e610ac5565b905060018451036110ee5760006110bf600086610bd990919063ffffffff16565b905060006110d7600086610bd990919063ffffffff16565b90506110e78389898585896114de565b50506110fd565b6110fc818787878787611692565b5b505b5050505050565b60608060405191506001825283602083015260408201905060018152826020820152604081016040529250929050565b805182511461118057815181516040517f5b059991000000000000000000000000000000000000000000000000000000008152600401611177929190612327565b60405180910390fd5b600061118a610ac5565b905060005b83518110156113995760006111ad8286610bd990919063ffffffff16565b905060006111c48386610bd990919063ffffffff16565b9050600073ffffffffffffffffffffffffffffffffffffffff168873ffffffffffffffffffffffffffffffffffffffff16146112f157600080600084815260200190815260200160002060008a73ffffffffffffffffffffffffffffffffffffffff1673ffffffffffffffffffffffffffffffffffffffff1681526020019081526020016000205490508181101561129957888183856040517f03dee4c500000000000000000000000000000000000000000000000000000000815260040161129094939291906123c9565b60405180910390fd5b81810360008085815260200190815260200160002060008b73ffffffffffffffffffffffffffffffffffffffff1673ffffffffffffffffffffffffffffffffffffffff16815260200190815260200160002081905550505b600073ffffffffffffffffffffffffffffffffffffffff168773ffffffffffffffffffffffffffffffffffffffff161461138c578060008084815260200190815260200160002060008973ffffffffffffffffffffffffffffffffffffffff1673ffffffffffffffffffffffffffffffffffffffff1681526020019081526020016000206000828254611384919061243d565b925050819055505b505080600101905061118f565b5060018351036114585760006113b9600085610bd990919063ffffffff16565b905060006113d1600085610bd990919063ffffffff16565b90508573ffffffffffffffffffffffffffffffffffffffff168773ffffffffffffffffffffffffffffffffffffffff168473ffffffffffffffffffffffffffffffffffffffff167fc3d58168c5ae7397731d063d5bbf3d657854427343f4c083240f7aacaa2d0f628585604051611449929190612327565b60405180910390a450506114d7565b8373ffffffffffffffffffffffffffffffffffffffff168573ffffffffffffffffffffffffffffffffffffffff168273ffffffffffffffffffffffffffffffffffffffff167f4a39dc06d4c0dbc64b70af90fd698a233a518aa5d07e595d983b8c0526c8f7fb86866040516114ce929190612471565b60405180910390a45b5050505050565b60008473ffffffffffffffffffffffffffffffffffffffff163b111561168a578373ffffffffffffffffffffffffffffffffffffffff1663f23a6e6187878686866040518663ffffffff1660e01b815260040161153f9594939291906124fd565b6020604051808303816000875af192505050801561157b57506040513d601f19601f82011682018060405250810190611578919061256c565b60015b6115ff573d80600081146115ab576040519150601f19603f3d011682016040523d82523d6000602084013e6115b0565b606091505b5060008151036115f757846040517f57f447ce0000000000000000000000000000000000000000000000000000000081526004016115ee91906123ae565b60405180910390fd5b805181602001fd5b63f23a6e6160e01b7bffffffffffffffffffffffffffffffffffffffffffffffffffffffff1916817bffffffffffffffffffffffffffffffffffffffffffffffffffffffff19161461168857846040517f57f447ce00000000000000000000000000000000000000000000000000000000815260040161167f91906123ae565b60405180910390fd5b505b505050505050565b60008473ffffffffffffffffffffffffffffffffffffffff163b111561183e578373ffffffffffffffffffffffffffffffffffffffff1663bc197c8187878686866040518663ffffffff1660e01b81526004016116f3959493929190612599565b6020604051808303816000875af192505050801561172f57506040513d601f19601f8201168201806040525081019061172c919061256c565b60015b6117b3573d806000811461175f576040519150601f19603f3d011682016040523d82523d6000602084013e611764565b606091505b5060008151036117ab57846040517f57f447ce0000000000000000000000000000000000000000000000000000000081526004016117a291906123ae565b60405180910390fd5b805181602001fd5b63bc197c8160e01b7bffffffffffffffffffffffffffffffffffffffffffffffffffffffff1916817bffffffffffffffffffffffffffffffffffffffffffffffffffffffff19161461183c57846040517f57f447ce00000000000000000000000000000000000000000000000000000000815260040161183391906123ae565b60405180910390fd5b505b505050505050565b6000604051905090565b600080fd5b600080fd5b600073ffffffffffffffffffffffffffffffffffffffff82169050919050565b60006118858261185a565b9050919050565b6118958161187a565b81146118a057600080fd5b50565b6000813590506118b28161188c565b92915050565b6000819050919050565b6118cb816118b8565b81146118d657600080fd5b50565b6000813590506118e8816118c2565b92915050565b6000806040838503121561190557611904611850565b5b6000611913858286016118a3565b9250506020611924858286016118d9565b9150509250929050565b611937816118b8565b82525050565b6000602082019050611952600083018461192e565b92915050565b60007fffffffff0000000000000000000000000000000000000000000000000000000082169050919050565b61198d81611958565b811461199857600080fd5b50565b6000813590506119aa81611984565b92915050565b6000602082840312156119c6576119c5611850565b5b60006119d48482850161199b565b91505092915050565b60008115159050919050565b6119f2816119dd565b82525050565b6000602082019050611a0d60008301846119e9565b92915050565b600081519050919050565b600082825260208201905092915050565b60005b83811015611a4d578082015181840152602081019050611a32565b60008484015250505050565b6000601f19601f8301169050919050565b6000611a7582611a13565b611a7f8185611a1e565b9350611a8f818560208601611a2f565b611a9881611a59565b840191505092915050565b60006020820190508181036000830152611abd8184611a6a565b905092915050565b600060208284031215611adb57611ada611850565b5b6000611ae9848285016118d9565b91505092915050565b600080fd5b7f4e487b7100000000000000000000000000000000000000000000000000000000600052604160045260246000fd5b611b2f82611a59565b810181811067ffffffffffffffff82111715611b4e57611b4d611af7565b5b80604052505050565b6000611b61611846565b9050611b6d8282611b26565b919050565b600067ffffffffffffffff821115611b8d57611b8c611af7565b5b602082029050602081019050919050565b600080fd5b6000611bb6611bb184611b72565b611b57565b90508083825260208201905060208402830185811115611bd957611bd8611b9e565b5b835b81811015611c025780611bee88826118d9565b845260208401935050602081019050611bdb565b5050509392505050565b600082601f830112611c2157611c20611af2565b5b8135611c31848260208601611ba3565b91505092915050565b600080fd5b600067ffffffffffffffff821115611c5a57611c59611af7565b5b611c6382611a59565b9050602081019050919050565b82818337600083830152505050565b6000611c92611c8d84611c3f565b611b57565b905082815260208101848484011115611cae57611cad611c3a565b5b611cb9848285611c70565b509392505050565b600082601f830112611cd657611cd5611af2565b5b8135611ce6848260208601611c7f565b91505092915050565b600080600080600060a08688031215611d0b57611d0a611850565b5b6000611d19888289016118a3565b9550506020611d2a888289016118a3565b945050604086013567ffffffffffffffff811115611d4b57611d4a611855565b5b611d5788828901611c0c565b935050606086013567ffffffffffffffff811115611d7857611d77611855565b5b611d8488828901611c0c565b925050608086013567ffffffffffffffff811115611da557611da4611855565b5b611db188828901611cc1565b9150509295509295909350565b600067ffffffffffffffff821115611dd957611dd8611af7565b5b602082029050602081019050919050565b6000611dfd611df884611dbe565b611b57565b90508083825260208201905060208402830185811115611e2057611e1f611b9e565b5b835b81811015611e495780611e3588826118a3565b845260208401935050602081019050611e22565b5050509392505050565b600082601f830112611e6857611e67611af2565b5b8135611e78848260208601611dea565b91505092915050565b60008060408385031215611e9857611e97611850565b5b600083013567ffffffffffffffff811115611eb657611eb5611855565b5b611ec285828601611e53565b925050602083013567ffffffffffffffff811115611ee357611ee2611855565b5b611eef85828601611c0c565b9150509250929050565b600081519050919050565b600082825260208201905092915050565b6000819050602082019050919050565b611f2e816118b8565b82525050565b6000611f408383611f25565b60208301905092915050565b6000602082019050919050565b6000611f6482611ef9565b611f6e8185611f04565b9350611f7983611f15565b8060005b83811015611faa578151611f918882611f34565b9750611f9c83611f4c565b925050600181019050611f7d565b5085935050505092915050565b60006020820190508181036000830152611fd18184611f59565b905092915050565b611fe2816119dd565b8114611fed57600080fd5b50565b600081359050611fff81611fd9565b92915050565b6000806040838503121561201c5761201b611850565b5b600061202a858286016118a3565b925050602061203b85828601611ff0565b9150509250929050565b6000806040838503121561205c5761205b611850565b5b600061206a858286016118a3565b925050602061207b858286016118a3565b9150509250929050565b600080600080600060a086880312156120a1576120a0611850565b5b60006120af888289016118a3565b95505060206120c0888289016118a3565b94505060406120d1888289016118d9565b93505060606120e2888289016118d9565b925050608086013567ffffffffffffffff81111561210357612102611855565b5b61210f88828901611cc1565b9150509295509295909350565b7f4e487b7100000000000000000000000000000000000000000000000000000000600052602260045260246000fd5b6000600282049050600182168061216357607f821691505b6020821081036121765761217561211c565b5b50919050565b600081905092915050565b7f68747470733a2f2f6379616e2d61637574652d707974686f6e2d3533332e6d7960008201527f70696e6174612e636c6f75642f697066732f516d4e655178797448613542665360208201527f58414e556e4a33465747684b72795465386d7852654c466870796e394851714560408201527f2f00000000000000000000000000000000000000000000000000000000000000606082015250565b600061222f60618361217c565b915061223a82612187565b606182019050919050565b600061225082611a13565b61225a818561217c565b935061226a818560208601611a2f565b80840191505092915050565b7f2e6a736f6e000000000000000000000000000000000000000000000000000000600082015250565b60006122ac60058361217c565b91506122b782612276565b600582019050919050565b60006122cd82612222565b91506122d98284612245565b91506122e48261229f565b915081905092915050565b6122f88161187a565b82525050565b600060408201905061231360008301856122ef565b61232060208301846122ef565b9392505050565b600060408201905061233c600083018561192e565b612349602083018461192e565b9392505050565b7f4e487b7100000000000000000000000000000000000000000000000000000000600052603260045260246000fd5b7f4e487b7100000000000000000000000000000000000000000000000000000000600052601260045260246000fd5b60006020820190506123c360008301846122ef565b92915050565b60006080820190506123de60008301876122ef565b6123eb602083018661192e565b6123f8604083018561192e565b612405606083018461192e565b95945050505050565b7f4e487b7100000000000000000000000000000000000000000000000000000000600052601160045260246000fd5b6000612448826118b8565b9150612453836118b8565b925082820190508082111561246b5761246a61240e565b5b92915050565b6000604082019050818103600083015261248b8185611f59565b9050818103602083015261249f8184611f59565b90509392505050565b600081519050919050565b600082825260208201905092915050565b60006124cf826124a8565b6124d981856124b3565b93506124e9818560208601611a2f565b6124f281611a59565b840191505092915050565b600060a08201905061251260008301886122ef565b61251f60208301876122ef565b61252c604083018661192e565b612539606083018561192e565b818103608083015261254b81846124c4565b90509695505050505050565b60008151905061256681611984565b92915050565b60006020828403121561258257612581611850565b5b600061259084828501612557565b91505092915050565b600060a0820190506125ae60008301886122ef565b6125bb60208301876122ef565b81810360408301526125cd8186611f59565b905081810360608301526125e18185611f59565b905081810360808301526125f581846124c4565b9050969550505050505056fea26469706673582212208bea77c20c4860fa0f5ed814d6062e2f12f0ab34149a08263167a16913ac9ca664736f6c6343000818003368747470733a2f2f6379616e2d61637574652d707974686f6e2d3533332e6d7970696e6174612e636c6f75642f697066732f516d4e655178797448613542665358414e556e4a33465747684b72795465386d7852654c466870796e39485171452f7b69647d2e6a736f6e",
  "linkReferences": {},
  "deployedLinkReferences": {}
}